:020000040000FA
:0400000056EF07F0C0
:020004000000FA
:0800080006EF00F0D8CF7CF0F8
:10001000E0CF7DF000017B6F0F019EBA1EEC00F077
:1000200000017B517DC0E0FF7CC0D8FF10000F01B4
:10003000AD6EACA219EF00F00001000C82B64BEFE0
:1000400000F023EF00F0ABB243EC00F0ABB443ECB4
:1000500000F0000100B234EF00F00F019E9AAE50A4
:1000600000017E6F0082000C0F019E9AAE500001CD
:100070007F6F00927F510F01E96E00017E510F01E9
:10008000EF6E0001000C9E9AAB98AE50AE50AE5091
:10009000AB880001000CABB284EC00F0ABB484EC94
:1000A00000F0000100B67EEF00F000AA6EEF00F055
:1000B0000F019E9AE12AAE50E76E0001CB2F000C93
:1000C000008600840F0110EE83F00001040ECB6F58
:1000D000009A0088019A020ED76F000C0F019E9AB9
:1000E000AE500001D65D0F01D8B479EF00F00001E9
:1000F000000C0001D72F000C008A000C0F019E9A03
:10010000AE500001CA6F000C9E9AAB98AE50AE5034
:10011000AE50AB880001000C0F01F29E00010BC035
:1001200080F0000E826F93EC03F00CC080F0822B05
:1001300093EC03F00DC080F0822B93EC03F00EC023
:1001400080F0822B93EC03F00FC080F0822B93ECB5
:1001500003F010C080F0822B93EC03F011C080F00C
:10016000822B93EC03F012C080F0822B93EC03F00F
:1001700013C080F0822B93EC03F014C080F0822B2C
:1001800093EC03F015C080F0822B93EC03F016C0C3
:1001900080F0822B93EC03F017C080F0822B93EC5D
:1001A00003F018C080F0822B93EC03F019C080F0AC
:1001B000822B93EC03F01AC080F0822B93EC03F0B7
:1001C0001BC080F0822B93EC03F01CC080F0822BCC
:1001D00093EC03F01DC080F0822B93EC03F01EC063
:1001E00080F0822B93EC03F01FC080F0822B93EC05
:1001F00003F020C080F0822B93EC03F021C080F04C
:10020000822B93EC03F022C080F0822B93EC03F05E
:1002100023C080F0822B93EC03F024C080F0822B6B
:1002200093EC03F025C080F0822B93EC03F026C002
:1002300080F0822B93EC03F027C080F0822B93ECAC
:1002400003F028C080F0822B93EC03F029C080F0EB
:10025000822B93EC03F02AC080F0822B93EC03F006
:100260002BC080F0822B93EC03F02CC080F0822B0B
:1002700093EC03F02DC080F0822B93EC03F02EC0A2
:1002800080F0822B93EC03F02FC080F0822B93EC54
:1002900003F030C080F0822B93EC03F031C080F08B
:1002A000822B93EC03F032C080F0822B93EC03F0AE
:1002B00033C080F0822B93EC03F034C080F0822BAB
:1002C00093EC03F035C080F0822B93EC03F036C042
:1002D00080F0822B93EC03F037C080F0822B93ECFC
:1002E00003F038C080F0822B93EC03F039C080F02B
:1002F000822B93EC03F03AC080F0822B93EC03F056
:100300003BC080F0822B93EC03F03CC080F0822B4A
:1003100093EC03F03DC080F0822B93EC03F03EC0E1
:1003200080F0822B93EC03F03FC080F0822B93ECA3
:1003300003F040C080F0822B93EC03F041C080F0CA
:10034000822B93EC03F042C080F0822B93EC03F0FD
:1003500043C080F0822B93EC03F044C080F0822BEA
:1003600093EC03F045C080F0822B93EC03F046C081
:1003700080F0822B93EC03F047C080F0822B93EC4B
:1003800003F048C080F0822B93EC03F049C080F06A
:10039000822B93EC03F04AC080F0822B93EC03F0A5
:1003A0004BC080F0822B93EC03F04CC080F0822B8A
:1003B00093EC03F04DC080F0822B93EC03F04EC021
:1003C00080F0822B93EC03F04FC080F0822B93ECF3
:1003D00003F050C080F0822B93EC03F051C080F00A
:1003E000822B93EC03F052C080F0822B93EC03F04D
:1003F00053C080F0822B93EC03F054C080F0822B2A
:1004000093EC03F055C080F0822B93EC03F08284D0
:1004100024EC04F024EC04F024EC04F08294576AF9
:100420000F01F28E0001000C0F01F29E0001000E80
:10043000826FA9EC03F081510B6E822BA9EC03F0C3
:1004400081510C6E822BA9EC03F081510D6E822B31
:10045000A9EC03F081510E6E822BA9EC03F08151BF
:100460000F6E822BA9EC03F08151106E822BA9EC48
:1004700003F08151116E822BA9EC03F08151126EB1
:10048000822BA9EC03F08151136E822BA9EC03F0AF
:100490008151146E822BA9EC03F08151156E822BD1
:1004A000A9EC03F08151166E822BA9EC03F0815167
:1004B000176E822BA9EC03F08151186E822BA9ECE8
:1004C00003F08151196E822BA9EC03F081511A6E51
:1004D000822BA9EC03F081511B6E822BA9EC03F057
:1004E00081511C6E822BA9EC03F081511D6E822B71
:1004F000A9EC03F081511E6E822BA9EC03F081510F
:100500001F6E822BA9EC03F08151206E822BA9EC87
:1005100003F08151216E822BA9EC03F08151226EF0
:10052000822BA9EC03F08151236E822BA9EC03F0FE
:100530008151246E822BA9EC03F08151256E822B10
:10054000A9EC03F08151266E822BA9EC03F08151B6
:10055000276E822BA9EC03F08151286E822BA9EC27
:1005600003F08151296E822BA9EC03F081512A6E90
:10057000822BA9EC03F081512B6E822BA9EC03F0A6
:1005800081512C6E822BA9EC03F081512D6E822BB0
:10059000A9EC03F081512E6E822BA9EC03F081515E
:1005A0002F6E822BA9EC03F08151306E822BA9ECC7
:1005B00003F08151316E822BA9EC03F08151326E30
:1005C000822BA9EC03F08151336E822BA9EC03F04E
:1005D0008151346E822BA9EC03F08151356E822B50
:1005E000A9EC03F08151366E822BA9EC03F0815106
:1005F000376E822BA9EC03F08151386E822BA9EC67
:1006000003F08151396E822BA9EC03F081513A6ECF
:10061000822BA9EC03F081513B6E822BA9EC03F0F5
:1006200081513C6E822BA9EC03F081513D6E822BEF
:10063000A9EC03F081513E6E822BA9EC03F08151AD
:100640003F6E822BA9EC03F08151406E822BA9EC06
:1006500003F08151416E822BA9EC03F08151426E6F
:10066000822BA9EC03F08151436E822BA9EC03F09D
:100670008151446E822BA9EC03F08151456E822B8F
:10068000A9EC03F08151466E822BA9EC03F0815155
:10069000476E822BA9EC03F08151486E822BA9ECA6
:1006A00003F08151496E822BA9EC03F081514A6E0F
:1006B000822BA9EC03F081514B6E822BA9EC03F045
:1006C00081514C6E822BA9EC03F081514D6E822B2F
:1006D000A9EC03F081514E6E822BA9EC03F08151FD
:1006E0004F6E822BA9EC03F08151506E822BA9EC46
:1006F00003F08151516E822BA9EC03F08151526EAF
:10070000822BA9EC03F08151536E822BA9EC03F0EC
:100710008151546E822BA9EC03F08151556E0F016B
:10072000F28E0001000C82510F01A96F000180516F
:100730000F01A86FA69FA69DA685550EA76FAA0EAE
:10074000A76FA683A1A9A2EF03F0A199A695000126
:10075000000C82510F01A96FA69FA69DA681A851EA
:100760000001816F000C5C5017EC00F040EC04F0CD
:1007700053EC04F05C5017EC00F06F5117EC00F0F4
:100780007A5117EC00F040EC04F053EC04F05C50AC
:1007900017EC00F06F5117EC00F0775117EC00F0F8
:1007A0005E5017EC00F0685117EC00F0625117EC46
:1007B00000F0615117EC00F0765117EC00F0595041
:1007C00017EC00F07A5117EC00F040EC04F053EC19
:1007D00004F05C5017EC00F06F5117EC00F077510B
:1007E00017EC00F05E5017EC00F0695117EC00F0C8
:1007F000685117EC00F0645117EC00F0765117ECDB
:1008000000F0595017EC00F0785117EC00F05A50F6
:1008100017EC00F0785117EC00F0585017EC00F08E
:10082000785117EC00F0585017EC00F0785117ECA5
:1008300000F0585017EC00F07A5117EC00F040EC43
:1008400004F053EC04F0000C960E036E320E066EAC
:10085000062E28EF04F0032E26EF04F0000C0E0EF7
:10086000046E480E076EF70E096E0400092E36EF6F
:1008700004F0072E33EF04F0042E31EF04F0000CE7
:1008800062EC04F0320E056EFF0E086EFF0E0A6E6B
:1008900004000A2E49EF04F0082E46EF04F0052E5E
:1008A00044EF04F0000C24EC04F0828424EC04F007
:1008B00024EC04F024EC04F024EC04F0829424EC06
:1008C00004F0000C24EC04F0828224EC04F024EC0C
:1008D00004F024EC04F024EC04F024EC04F0829204
:1008E00024EC04F0000C1650845D0F01D8A491EFA5
:1008F00004F000011750855D0F01D8A491EF04F0BA
:1009000000011850865D0F01D8A491EF04F000019A
:100910001950875D0F01D8A491EF04F00001018008
:10092000000C00012550845DD8A4A8EF04F02650E7
:10093000855DD8A4A8EF04F02750865DD8A4A8EF61
:1009400004F02850875DD8A4A8EF04F00182000CC1
:100950003450845DD8A4BEEF04F03550855DD8A432
:10096000BEEF04F03650865DD8A4BEEF04F03750D9
:10097000875DD8A4BEEF04F00184000C4350845D71
:10098000D8A4D4EF04F04450855DD8A4D4EF04F08B
:100990004550865DD8A4D4EF04F04650875DD8A4B6
:1009A000D4EF04F00186000C5250845DD8A4EAEF25
:1009B00004F05350855DD8A4EAEF04F05450865DEE
:1009C000D8A4EAEF04F05550875DD8A4EAEF04F00C
:1009D0000188000C018A62EC04F0000C01B0FEEF0B
:1009E00004F001B23EEF05F001B47FEF05F001B66F
:1009F000C0EF05F001B801EF06F0000C0F01080E82
:100A00006F6E00010DC045FFCC9F0BB4CC8FCC9D09
:100A10000BB2CC8DCC9B0BB0CC8BCC990CBECC89C3
:100A2000CC970CBCCC87CC950CBACC85CC930CB8AD
:100A3000CC83CC910CB6CC810CB4CD8FCD9D0CB2B7
:100A4000CD8DCD9B0CB0CD8BCD99CD97CD95CD9344
:100A5000CD91CCC041FFCDC042FF0EC046FF0FC0BC
:100A600047FF10C048FF11C049FF12C04AFF13C022
:100A70004BFF14C04CFF15C04DFF000C0F01080EBA
:100A80006F6E00011CC045FFCE9F1AB4CE8FCE9D65
:100A90001AB2CE8DCE9B1AB0CE8BCE991BBECE890C
:100AA000CE971BBCCE87CE951BBACE85CE931BB8F6
:100AB000CE83CE911BB6CE81CF9F1BB4CF8FCF9D5F
:100AC0001BB2CF8DCF9B1BB0CF8BCF99CF97CF953C
:100AD000CF93CF91CEC041FFCFC042FF1DC046FF94
:100AE0001EC047FF1FC048FF20C049FF21C04AFF6A
:100AF00022C04BFF23C04CFF24C04DFF000C0F0150
:100B0000080E6F6E00012BC045FFD09F29B4D08F17
:100B1000D09D29B2D08DD09B29B0D08BD0992ABE40
:100B2000D089D0972ABCD087D0952ABAD085D093C7
:100B30002AB8D083D0912AB6D081D19F2AB4D18F40
:100B4000D19D2AB2D18DD19B2AB0D18BD199D19789
:100B5000D195D193D191D0C041FFD1C042FF2CC0DB
:100B600046FF2DC047FF2EC048FF2FC049FF30C0B1
:100B70004AFF31C04BFF32C04CFF33C04DFF000C69
:100B80000F01080E6F6E00013AC045FFD29F38B4C6
:100B9000D28FD29D38B2D28DD29B38B0D28BD2991F
:100BA00039BED289D29739BCD287D29539BAD2858B
:100BB000D29339B8D283D29139B6D281D39F39B486
:100BC000D38FD39D39B2D38DD39B39B0D38BD399E7
:100BD000D397D395D393D391D2C041FFD3C042FFD3
:100BE0003BC046FF3CC047FF3DC048FF3EC049FFF9
:100BF0003FC04AFF40C04BFF41C04CFF42C04DFFC9
:100C0000000C0F01080E6F6E000149C045FFD49F14
:100C100047B4D48FD49D47B2D48DD49B47B0D48BE6
:100C2000D49948BED489D49748BCD487D49548BABF
:100C3000D485D49348B8D483D49148B6D481D59F71
:100C400048B4D58FD59D48B2D58DD59B48B0D58BAE
:100C5000D599D597D595D593D591D4C041FFD5C019
:100C600042FF4AC046FF4BC047FF4CC048FF4DC043
:100C700049FF4EC04AFF4FC04BFF50C04CFF51C010
:100C80004DFF000C0F01776A800E6F6E010E706EC3
:100C9000C90E716E020E726E880E6F6E030E406F7B
:100CA000000E306F000E206F0001000C0F01408716
:100CB000040040B758EF06F00400A4A45CEF06F06F
:100CC000A4940001000C2FEC04F02FEC04F08284BB
:100CD00024EC04F024EC04F024EC04F0829456B0EC
:100CE00079EF06F00F0182B688EF06F0000163EF9E
:100CF00006F024EC04F024EC04F0828224EC04F0EE
:100D000024EC04F0829257B08CEC00F079EF06F0FE
:100D1000000140EC04F040EC04F040EC04F040EC46
:100D200004F040EC04F040EC04F040EC04F040EC43
:100D300004F00F01800EAB6E660EAF6EB06A00015C
:100D4000B3EC03F014EC02F040EC04F040EC04F0DF
:100D50000F01900EAB6E0001016A82842FEC04F04B
:100D60002FEC04F02FEC04F0829400A4ACEF06F01A
:100D700000940096009840EC04F053EC04F073ECFF
:100D800004F001BAACEF06F042EC06F08282EEEC21
:100D900004F056EC06F0829224EC04F000A8C6EFB2
:100DA00006F0ACEF06F0000124EC04F00F01806ABD
:100DB000816A826A000ED36E000EC16E000E926EC2
:100DC000080E936E880E946E896A8A6A8B6A9E6A90
:100DD000A16AA46AF26AF16AF06A9D6AA06AA36ACB
:100DE0006E6A746A10EE83F00001006A016A040EF4
:100DF000CB6F020ED76F566A576A410E5C6E420E79
:100E00005D6E430E5E6E440E5F6E450E606F460E65
:100E1000616F470E626F480E636F490E646F4A0E32
:100E2000656F4B0E666F4C0E676F4D0E686F4E0E02
:100E3000696F4F0E6A6F500E6B6F510E6C6F520ED2
:100E40006D6F530E6E6F540E6F6F550E706F560EA2
:100E5000716F570E726F580E736F590E746F5A0E72
:100E6000756F300E586E310E596E320E5A6E330E4B
:100E70005B6E3D0E766F2B0E776F2C0E786F220E09
:100E8000796F0D0E7A6F0A0ED66F0F01000EB86ED5
:100E9000240EAC6E6D0EAF6EB06AF28CF28E9F8A2D
:0C0EA0009D8A900EAB6E000163EF06F01F
:040EAC00D3EF06F08A
:020000040030CA
:0100010006F8
:010002001FDE
:010003001EDE
:010005008278
:010006008079
:010008000FE8
:01000900C036
:01000A000FE6
:01000B00E014
:01000C000FE4
:01000D0040B2
:00000001FF
