:020000040000FA
:0400000029EF09F0EB
:020004000000FA
:0800080006EF00F0D8CF7CF0F8
:10001000E0CF7DF000017B6F0F019EBA1EEC00F077
:1000200000017B517DC0E0FF7CC0D8FF10000F01B4
:10003000AD6EACA219EF00F00001000C82B64BEFE0
:1000400000F023EF00F0ABB243EC00F0ABB443ECB4
:1000500000F0000100B234EF00F00F019E9AAE50A4
:1000600000017E6F0082000C0F019E9AAE500001CD
:100070007F6F00927F510F01E96E00017E510F01E9
:10008000EF6E0001000C9E9AAB98AE50AE50AE5091
:10009000AB880001000CABB2AEEC00F0ABB4AEEC40
:1000A00000F0000100B6A8EF00F000AC8AEF00F00D
:1000B00001A060EF00F000AA95EF00F072EF00F0F1
:1000C0000F019E9AD92AAE50DF6E0001972F000CC7
:1000D0000F0120EEA8F000019851976F020E966F65
:1000E0000180000C0F019E9AE12AAE50E76E0001DC
:1000F000892F000C008600840F0110EE83F00001B0
:10010000040E896F009A009C01900088029C020EE8
:10011000956F000C0F019E9AAE500001775D0F01A4
:10012000D8B4A0EF00F00001000C0F019E9AAE5071
:100130000001945D0F01D8B4A5EF00F00001000CA0
:100140000001962F000C008C000C0001008A000CAE
:100150000F019E9AAE500001886F000C9E9AAB98DA
:10016000AE50AE50AE50AB880001000C0F01F29EB5
:1001700000010BC080F0000E826F67EC04F00CC031
:1001800080F0822B67EC04F00DC080F0822B67ECCE
:1001900004F00EC080F0822B67EC04F00FC080F0FA
:1001A000822B67EC04F010C080F0822B67EC04F027
:1001B00011C080F0822B67EC04F012C080F0822B1B
:1001C00067EC04F013C080F0822B67EC04F014C0DD
:1001D00080F0822B67EC04F015C080F0822B67EC76
:1001E00004F016C080F0822B67EC04F017C080F09A
:1001F000822B67EC04F018C080F0822B67EC04F0CF
:1002000019C080F0822B67EC04F01AC080F0822BBA
:1002100067EC04F01BC080F0822B67EC04F01CC07C
:1002200080F0822B67EC04F01DC080F0822B67EC1D
:1002300004F01EC080F0822B67EC04F01FC080F039
:10024000822B67EC04F020C080F0822B67EC04F076
:1002500021C080F0822B67EC04F022C080F0822B5A
:1002600067EC04F023C080F0822B67EC04F024C01C
:1002700080F0822B67EC04F025C080F0822B67ECC5
:1002800004F026C080F0822B67EC04F027C080F0D9
:10029000822B67EC04F028C080F0822B67EC04F01E
:1002A00029C080F0822B67EC04F02AC080F0822BFA
:1002B00067EC04F02BC080F0822B67EC04F02CC0BC
:1002C00080F0822B67EC04F02DC080F0822B67EC6D
:1002D00004F02EC080F0822B67EC04F02FC080F079
:1002E000822B67EC04F030C080F0822B67EC04F0C6
:1002F00031C080F0822B67EC04F032C080F0822B9A
:1003000067EC04F033C080F0822B67EC04F034C05B
:1003100080F0822B67EC04F035C080F0822B67EC14
:1003200004F036C080F0822B67EC04F037C080F018
:10033000822B67EC04F038C080F0822B67EC04F06D
:1003400039C080F0822B67EC04F03AC080F0822B39
:1003500067EC04F03BC080F0822B67EC04F03CC0FB
:1003600080F0822B67EC04F03DC080F0822B67ECBC
:1003700004F03EC080F0822B67EC04F03FC080F0B8
:10038000822B67EC04F040C080F0822B67EC04F015
:1003900041C080F0822B67EC04F042C080F0822BD9
:1003A00067EC04F043C080F0822B67EC04F044C09B
:1003B00080F0822B67EC04F045C080F0822B67EC64
:1003C00004F046C080F0822B67EC04F047C080F058
:1003D000822B67EC04F048C080F0822B67EC04F0BD
:1003E00049C080F0822B67EC04F04AC080F0822B79
:1003F00067EC04F04BC080F0822B67EC04F04CC03B
:1004000080F0822B67EC04F04DC080F0822B67EC0B
:1004100004F04EC080F0822B67EC04F04FC080F0F7
:10042000822B67EC04F050C080F0822B67EC04F064
:1004300051C080F0822B67EC04F052C080F0822B18
:1004400067EC04F053C080F0822B67EC04F054C0DA
:1004500080F0822B67EC04F055C080F0822B67ECB3
:1004600004F098C080F0822B67EC04F099C080F013
:10047000822B67EC04F09AC080F0822B67EC04F0CA
:100480009BC080F0822B67EC04F09CC080F0822B34
:1004900067EC04F09DC080F0822B67EC04F09EC0F6
:1004A00080F0822B67EC04F09FC080F0822B67EC19
:1004B00004F0A0C080F0822B67EC04F0A1C080F0B3
:1004C000822B67EC04F0A2C080F0822B67EC04F072
:1004D000A3C080F0822B67EC04F0A4C080F0822BD4
:1004E00067EC04F0A5C080F0822B67EC04F0A6C096
:1004F00080F0822B67EC04F0A7C080F0822B67ECC1
:1005000004F0B8C080F0822B67EC04F08284F8EC31
:1005100004F0F8EC04F0F8EC04F08294576A0F0150
:10052000F28E0001000C0F01F29E0001000E826F9E
:100530007DEC04F081510B6E822B7DEC04F0815137
:100540000C6E822B7DEC04F081510D6E822B7DECC4
:1005500004F081510E6E822B7DEC04F081510F6E00
:10056000822B7DEC04F08151106E822B7DEC04F027
:100570008151116E822B7DEC04F08151126E822B21
:100580007DEC04F08151136E822B7DEC04F08151DF
:10059000146E822B7DEC04F08151156E822B7DEC64
:1005A00004F08151166E822B7DEC04F08151176EA0
:1005B000822B7DEC04F08151186E822B7DEC04F0CF
:1005C0008151196E822B7DEC04F081511A6E822BC1
:1005D0007DEC04F081511B6E822B7DEC04F0815187
:1005E0001C6E822B7DEC04F081511D6E822B7DEC04
:1005F00004F081511E6E822B7DEC04F081511F6E40
:10060000822B7DEC04F08151206E822B7DEC04F076
:100610008151216E822B7DEC04F08151226E822B60
:100620007DEC04F08151236E822B7DEC04F081512E
:10063000246E822B7DEC04F08151256E822B7DECA3
:1006400004F08151266E822B7DEC04F08151276EDF
:10065000822B7DEC04F08151286E822B7DEC04F01E
:100660008151296E822B7DEC04F081512A6E822B00
:100670007DEC04F081512B6E822B7DEC04F08151D6
:100680002C6E822B7DEC04F081512D6E822B7DEC43
:1006900004F081512E6E822B7DEC04F081512F6E7F
:1006A000822B7DEC04F08151306E822B7DEC04F0C6
:1006B0008151316E822B7DEC04F08151326E822BA0
:1006C0007DEC04F08151336E822B7DEC04F081517E
:1006D000346E822B7DEC04F08151356E822B7DECE3
:1006E00004F08151366E822B7DEC04F08151376E1F
:1006F000822B7DEC04F08151386E822B7DEC04F06E
:100700008151396E822B7DEC04F081513A6E822B3F
:100710007DEC04F081513B6E822B7DEC04F0815125
:100720003C6E822B7DEC04F081513D6E822B7DEC82
:1007300004F081513E6E822B7DEC04F081513F6EBE
:10074000822B7DEC04F08151406E822B7DEC04F015
:100750008151416E822B7DEC04F08151426E822BDF
:100760007DEC04F08151436E822B7DEC04F08151CD
:10077000446E822B7DEC04F08151456E822B7DEC22
:1007800004F08151466E822B7DEC04F08151476E5E
:10079000822B7DEC04F08151486E822B7DEC04F0BD
:1007A0008151496E822B7DEC04F081514A6E822B7F
:1007B0007DEC04F081514B6E822B7DEC04F0815175
:1007C0004C6E822B7DEC04F081514D6E822B7DECC2
:1007D00004F081514E6E822B7DEC04F081514F6EFE
:1007E000822B7DEC04F08151506E822B7DEC04F065
:1007F0008151516E822B7DEC04F08151526E822B1F
:100800007DEC04F08151536E822B7DEC04F081511C
:10081000546E822B7DEC04F08151556E822B7DEC61
:1008200004F08151986F822B7DEC04F08151996F17
:10083000822B7DEC04F081519A6F822B7DEC04F0C9
:1008400081519B6F822B7DEC04F081519C6F822B38
:100850007DEC04F081519D6F822B7DEC04F0815181
:100860009E6F822B7DEC04F081519F6F822B7DEC7B
:1008700004F08151A06F822B7DEC04F08151A16FB7
:10088000822B7DEC04F08151A26F822B7DEC04F071
:100890008151A36F822B7DEC04F08151A46F822BD8
:1008A0007DEC04F08151A56F822B7DEC04F0815129
:1008B000A66F822B7DEC04F08151A76F822B7DEC1B
:1008C00004F08151B86F0F01F28E0001000C8251CB
:1008D0000F01A96F000180510F01A86FA69FA69D6F
:1008E000A685550EA76FAA0EA76FA683A1A976EFBE
:1008F00004F0A199A6950001000C82510F01A96F87
:10090000A69FA69DA681A8510001816F000C5C5096
:1009100017EC00F014EC05F027EC05F05C5017EC38
:1009200000F06F5117EC00F07A5117EC00F014EC66
:1009300005F027EC05F05C5017EC00F06F5117EC58
:1009400000F0775117EC00F05E5017EC00F06851A2
:1009500017EC00F0625117EC00F0615117EC00F059
:10096000765117EC00F0595017EC00F07A5117EC63
:1009700000F014EC05F027EC05F05C5017EC00F0EB
:100980006F5117EC00F0775117EC00F05E5017EC48
:1009900000F0695117EC00F0685117EC00F0645159
:1009A00017EC00F0765117EC00F0595017EC00F0FE
:1009B000785117EC00F05A5017EC00F0785117EC12
:1009C00000F0585017EC00F0785117EC00F0585038
:1009D00017EC00F0785117EC00F0585017EC00F0CD
:1009E0007A5117EC00F014EC05F027EC05F0000C40
:1009F000960E036E320E066E062EFCEF04F0032EEA
:100A0000FAEF04F0000C0E0E046E480E076EF70E9F
:100A1000096E0400092E0AEF05F0072E07EF05F016
:100A2000042E05EF05F0000C36EC05F0320E056ED5
:100A3000FF0E086EFF0E0A6E04000A2E1DEF05F071
:100A4000082E1AEF05F0052E18EF05F0000CF8EC53
:100A500004F08284F8EC04F0F8EC04F0F8EC04F014
:100A6000F8EC04F08294F8EC04F0000CF8EC04F0DC
:100A70008282F8EC04F0F8EC04F0F8EC04F0F8EC06
:100A800004F0F8EC04F08292F8EC04F0000C0001A1
:100A90009951A95D0F01D8A4B3EF05F000019A5157
:100AA000AA5D0F01D8A4B3EF05F000019B51AB5D27
:100AB0000F01D8A4B3EF05F000019C51AC5D0F010C
:100AC000D8A4B3EF05F000019D51AD5D0F01D8A48E
:100AD000B3EF05F000019E51AE5D0F01D8A4B3EF56
:100AE00005F000019F51AF5D0F01D8A4B3EF05F0F1
:100AF0000001A051B05D0F01D8A4B3EF05F00001D3
:100B0000A151B15D0F01D8A4B3EF05F00001A251CE
:100B1000B25D0F01D8A4B3EF05F00001A351B35D9E
:100B20000F01D8A4B3EF05F00001A451B45D0F018B
:100B3000D8A4B3EF05F00001A551B55D0F01D8A40D
:100B4000B3EF05F00001A651B65D0F01D8A4B3EFD5
:100B500005F00001A751B75D0F01D8A4B3EF05F070
:100B60000001008E000C0001009E000C1650845DF8
:100B70000F01D8A4D4EF05F000011750855D0F01D7
:100B8000D8A4D4EF05F000011850865D0F01D8A459
:100B9000D4EF05F000011950875D0F01D8A4D4EF00
:100BA00005F000010280000C00012550845D0F015A
:100BB000D8A4F3EF05F000012650855D0F01D8A4FD
:100BC000F3EF05F000012750865D0F01D8A4F3EF85
:100BD00005F000012850875D0F01D8A4F3EF05F060
:100BE00000010282000C00013450845D0F01D8A482
:100BF00012EF06F000013550855D0F01D8A412EF09
:100C000006F000013650865D0F01D8A412EF06F001
:100C100000013750875D0F01D8A412EF06F00001E4
:100C20000284000C00014350845D0F01D8A431EF11
:100C300006F000014450855D0F01D8A431EF06F0A5
:100C400000014550865D0F01D8A431EF06F0000188
:100C50004650875D0F01D8A431EF06F000010286EF
:100C6000000C00015250845D0F01D8A450EF06F033
:100C700000015350855D0F01D8A450EF06F000012C
:100C80005450865D0F01D8A450EF06F00001555076
:100C9000875D0F01D8A450EF06F000010288000C18
:100CA00000016651845D0F01D8A474EF06F00001C5
:100CB0006451855D0F01D8A474EF06F000016751FF
:100CC000865D0F01D8A474EF06F000016751875DBF
:100CD0000F01D8A474EF06F00001B8B372EF06F06C
:100CE00074EF06F0028A000C028C36EC05F0000C62
:100CF00002B08BEF06F002B2CBEF06F002B40CEFBD
:100D000007F002B64DEF07F002B88EEF07F002BA17
:100D1000CFEF07F0000C0F01080E6F6E00010DC041
:100D200045FF8A9F0BB48A8F8A9D0BB28A8D8A9B5E
:100D30000BB08A8B8A990CBE8A898A970CBC8A87E9
:100D40008A950CBA8A858A930CB88A838A910CB6E4
:100D50008A810CB48B8F8B9D0CB28B8D8B9B0CB0CE
:100D60008B8B8B998B978B958B938B918AC041FF43
:100D70008BC042FF0EC046FF0FC047FF10C048FFA8
:100D800011C049FF12C04AFF13C04BFF14C04CFFF3
:100D900015C04DFF000C0F01080E6F6E00011CC046
:100DA00045FF8C9F1AB48C8F8C9D1AB28C8D8C9BB6
:100DB0001AB08C8B8C991BBE8C898C971BBC8C8732
:100DC0008C951BBA8C858C931BB88C838C911BB62D
:100DD0008C818D9F1BB48D8F8D9D1BB28D8D8D9BB6
:100DE0001BB08D8B8D998D978D958D938D918CC02A
:100DF00041FF8DC042FF1DC046FF1EC047FF1FC000
:100E000048FF20C049FF21C04AFF22C04BFF23C03A
:100E10004CFF24C04DFF000C0F01080E6F6E000147
:100E20002BC045FF8E9F29B48E8F8E9D29B28E8D4B
:100E30008E9B29B08E8B8E992ABE8E898E972ABC66
:100E40008E878E952ABA8E858E932AB88E838E9140
:100E50002AB68E818F9F2AB48F8F8F9D2AB28F8D55
:100E60008F9B2AB08F8B8F998F978F958F938F91B0
:100E70008EC041FF8FC042FF2CC046FF2DC047FFF0
:100E80002EC048FF2FC049FF30C04AFF31C04BFF82
:100E900032C04CFF33C04DFF000C0F01080E6F6EC7
:100EA00000013AC045FF909F38B4908F909D38B2B2
:100EB000908D909B38B0908B909939BE9089909787
:100EC00039BC9087909539BA9085909339B89083C2
:100ED000909139B69081919F39B4918F919D39B29B
:100EE000918D919B39B0918B919991979195919317
:100EF000919190C041FF91C042FF3BC046FF3CC072
:100F000047FF3DC048FF3EC049FF3FC04AFF40C0C9
:100F10004BFF41C04CFF42C04DFF000C0F01080EBB
:100F20006F6E000149C045FF929F47B4928F929D1A
:100F300047B2928D929B47B0928B929948BE92890C
:100F4000929748BC9287929548BA9285929348B8F6
:100F50009283929148B69281939F48B4938F939DC8
:100F600048B2938D939B48B0938B939993979395A5
:100F70009393939192C041FF93C042FF4AC046FFB2
:100F80004BC047FF4CC048FF4DC049FF4EC04AFF11
:100F90004FC04BFF50C04CFF51C04DFF000C0F0124
:100FA000080E6F6E080E456F000E416F000E426F07
:100FB000010E466F010E476F010E486F010E496F1B
:100FC000010E4A6F010E4B6F010E4C6F010E4D6FFB
:100FD000010E0001000C0F01776A800E6F6E010E8A
:100FE000706EC90E716E020E726E880E6F6E030EF9
:100FF000406F000E306F000E206F0001000C0F01DB
:101000004087040040B701EF08F00400A4A405EFF6
:1010100008F0A4940001000C03EC05F003EC05F0CB
:101020008284F8EC04F0F8EC04F0F8EC04F082941C
:1010300056B022EF08F00F0182B631EF08F0000140
:101040000CEF08F0F8EC04F0F8EC04F08282F8EC15
:1010500004F0F8EC04F0829257B0B6EC00F022EF06
:1010600008F0000114EC05F014EC05F014EC05F0A8
:1010700014EC05F014EC05F014EC05F014EC05F09C
:1010800014EC05F00F01800EAB6E660EAF6EB06A09
:10109000000187EC04F093EC02F014EC05F014EC82
:1010A00005F09851976F0F01900EAB6E0001026A28
:1010B000828403EC05F003EC05F003EC05F0829468
:1010C00000A457EF08F000940096009814EC05F087
:1010D00027EC05F047EC05F000AE57EF08F0B6EC52
:1010E00005F002BC57EF08F0EBEC07F0828278ECD9
:1010F00006F0FFEC07F08292F8EC04F000A876EF1F
:1011000008F057EF08F00001F8EC04F00F01806AD6
:10111000816A826A000ED36E000EC16E000E926E5E
:10112000080E936E880E946E896A8A6A8B6A9E6A2C
:10113000A16AA46AF26AF16AF06A9D6AA06AA36A67
:101140006E6A746A10EE83F020EEA8F00001006A67
:10115000016A026A996B9A6B9B6B9C6B9D6B9E6B91
:101160009F6BA06BA16BA26BA36BA46BA56BA66B13
:10117000A76BA96BAA6BAB6BAC6BAD6BAE6BAF6BBC
:10118000B06BB16BB26BB36BB46BB56BB66BB76B6B
:10119000040E896F020E956F020E966F566A576A9B
:1011A000410E5C6E420E5D6E430E5E6E440E5F6ECF
:1011B000450E606F460E616F470E626F480E636F9B
:1011C000490E646F4A0E656F4B0E666F4C0E676F6B
:1011D0004D0E686F4E0E696F4F0E6A6F500E6B6F3B
:1011E000510E6C6F520E6D6F530E6E6F540E6F6F0B
:1011F000550E706F560E716F570E726F580E736FDB
:10120000590E746F5A0E756F300E586E310E596E3E
:10121000320E5A6E330E5B6E3D0E766F2B0E776F6D
:101220002C0E786F220E796F0D0E7A6F0A0E946F66
:101230000F01000EB86E240EAC6E6D0EAF6EB06A6C
:10124000F28CF28E9F8A9D8A900EAB6E00010CEF9D
:0212500008F0A4
:0412520083EF08F02E
:020000040030CA
:0100010006F8
:010002001FDE
:010003001EDE
:010005008278
:010006008079
:010008000CEB
:01000900C036
:01000A000FE6
:01000B00E014
:01000C000FE4
:01000D0040B2
:00000001FF
